{
  "_format": "hh-sol-artifact-1",
  "contractName": "MultiHopSwap",
  "sourceName": "contracts/MultiHopSwap.sol",
  "abi": [
    {
      "inputs": [],
      "name": "DAI",
      "outputs": [
        {
          "internalType": "address",
          "name": "",
          "type": "address"
        }
      ],
      "stateMutability": "view",
      "type": "function"
    },
    {
      "inputs": [],
      "name": "USDC",
      "outputs": [
        {
          "internalType": "address",
          "name": "",
          "type": "address"
        }
      ],
      "stateMutability": "view",
      "type": "function"
    },
    {
      "inputs": [],
      "name": "WETH9",
      "outputs": [
        {
          "internalType": "address",
          "name": "",
          "type": "address"
        }
      ],
      "stateMutability": "view",
      "type": "function"
    },
    {
      "inputs": [
        {
          "internalType": "uint256",
          "name": "amountIn",
          "type": "uint256"
        }
      ],
      "name": "swapExactInputMultiHop",
      "outputs": [
        {
          "internalType": "uint256",
          "name": "amountOut",
          "type": "uint256"
        }
      ],
      "stateMutability": "nonpayable",
      "type": "function"
    },
    {
      "inputs": [
        {
          "internalType": "uint256",
          "name": "amountOut",
          "type": "uint256"
        },
        {
          "internalType": "uint256",
          "name": "amountInMaximum",
          "type": "uint256"
        }
      ],
      "name": "swapExactOutputMultiHop",
      "outputs": [
        {
          "internalType": "uint256",
          "name": "amountIn",
          "type": "uint256"
        }
      ],
      "stateMutability": "nonpayable",
      "type": "function"
    },
    {
      "inputs": [],
      "name": "swapRouter",
      "outputs": [
        {
          "internalType": "contract ISwapRouter",
          "name": "",
          "type": "address"
        }
      ],
      "stateMutability": "view",
      "type": "function"
    }
  ],
  "bytecode": "0x608060405234801561001057600080fd5b50610f40806100206000396000f3fe608060405234801561001057600080fd5b50600436106100625760003560e01c80634aa4a4fc1461006757806357688eda1461008557806389a30271146100b5578063c31c9c07146100d3578063d05d4cdd146100f1578063e0bab4c414610121575b600080fd5b61006f61013f565b60405161007c9190610833565b60405180910390f35b61009f600480360381019061009a9190610889565b610157565b6040516100ac91906108c5565b60405180910390f35b6100bd6102ec565b6040516100ca9190610833565b60405180910390f35b6100db610304565b6040516100e8919061093f565b60405180910390f35b61010b6004803603810190610106919061095a565b61031c565b60405161011891906108c5565b60405180910390f35b61012961052d565b6040516101369190610833565b60405180910390f35b73c02aaa39b223fe8d0a0e5c4f27ead9083c756cc281565b600061017973c02aaa39b223fe8d0a0e5c4f27ead9083c756cc2333085610545565b6101ac73c02aaa39b223fe8d0a0e5c4f27ead9083c756cc273e592427a0aece92de3edee1f18e0157c058615648461069d565b60006040518060a0016040528073c02aaa39b223fe8d0a0e5c4f27ead9083c756cc2610bb873a0b86991c6218b36c1d19d4a2e9eb0ce3606eb486064736b175474e89094c44da98b954eedeac495271d0f604051602001610211959493929190610a27565b60405160208183030381529060405281526020013373ffffffffffffffffffffffffffffffffffffffff1681526020014281526020018481526020016000815250905073e592427a0aece92de3edee1f18e0157c0586156473ffffffffffffffffffffffffffffffffffffffff1663c04b8d59826040518263ffffffff1660e01b81526004016102a19190610baa565b6020604051808303816000875af11580156102c0573d6000803e3d6000fd5b505050506040513d601f19601f820116820180604052508101906102e49190610be1565b915050919050565b73a0b86991c6218b36c1d19d4a2e9eb0ce3606eb4881565b73e592427a0aece92de3edee1f18e0157c0586156481565b600061033e73c02aaa39b223fe8d0a0e5c4f27ead9083c756cc2333085610545565b61037173c02aaa39b223fe8d0a0e5c4f27ead9083c756cc273e592427a0aece92de3edee1f18e0157c058615648461069d565b60006040518060a00160405280736b175474e89094c44da98b954eedeac495271d0f606473a0b86991c6218b36c1d19d4a2e9eb0ce3606eb48610bb873c02aaa39b223fe8d0a0e5c4f27ead9083c756cc26040516020016103d6959493929190610a27565b60405160208183030381529060405281526020013373ffffffffffffffffffffffffffffffffffffffff16815260200142815260200185815260200184815250905073e592427a0aece92de3edee1f18e0157c0586156473ffffffffffffffffffffffffffffffffffffffff1663f28c0498826040518263ffffffff1660e01b81526004016104659190610c84565b6020604051808303816000875af1158015610484573d6000803e3d6000fd5b505050506040513d601f19601f820116820180604052508101906104a89190610be1565b915082821015610526576104e673c02aaa39b223fe8d0a0e5c4f27ead9083c756cc273e592427a0aece92de3edee1f18e0157c05861564600061069d565b61052573c02aaa39b223fe8d0a0e5c4f27ead9083c756cc273e592427a0aece92de3edee1f18e0157c058615643385876105209190610cd5565b610545565b5b5092915050565b736b175474e89094c44da98b954eedeac495271d0f81565b6000808573ffffffffffffffffffffffffffffffffffffffff166323b872dd60e01b86868660405160240161057c93929190610d09565b604051602081830303815290604052907bffffffffffffffffffffffffffffffffffffffffffffffffffffffff19166020820180517bffffffffffffffffffffffffffffffffffffffffffffffffffffffff83818316178352505050506040516105e69190610d7c565b6000604051808303816000865af19150503d8060008114610623576040519150601f19603f3d011682016040523d82523d6000602084013e610628565b606091505b509150915081801561065657506000815114806106555750808060200190518101906106549190610dcb565b5b5b610695576040517f08c379a000000000000000000000000000000000000000000000000000000000815260040161068c90610e55565b60405180910390fd5b505050505050565b6000808473ffffffffffffffffffffffffffffffffffffffff1663095ea7b360e01b85856040516024016106d2929190610e75565b604051602081830303815290604052907bffffffffffffffffffffffffffffffffffffffffffffffffffffffff19166020820180517bffffffffffffffffffffffffffffffffffffffffffffffffffffffff838183161783525050505060405161073c9190610d7c565b6000604051808303816000865af19150503d8060008114610779576040519150601f19603f3d011682016040523d82523d6000602084013e61077e565b606091505b50915091508180156107ac57506000815114806107ab5750808060200190518101906107aa9190610dcb565b5b5b6107eb576040517f08c379a00000000000000000000000000000000000000000000000000000000081526004016107e290610eea565b60405180910390fd5b5050505050565b600073ffffffffffffffffffffffffffffffffffffffff82169050919050565b600061081d826107f2565b9050919050565b61082d81610812565b82525050565b60006020820190506108486000830184610824565b92915050565b600080fd5b6000819050919050565b61086681610853565b811461087157600080fd5b50565b6000813590506108838161085d565b92915050565b60006020828403121561089f5761089e61084e565b5b60006108ad84828501610874565b91505092915050565b6108bf81610853565b82525050565b60006020820190506108da60008301846108b6565b92915050565b6000819050919050565b60006109056109006108fb846107f2565b6108e0565b6107f2565b9050919050565b6000610917826108ea565b9050919050565b60006109298261090c565b9050919050565b6109398161091e565b82525050565b60006020820190506109546000830184610930565b92915050565b600080604083850312156109715761097061084e565b5b600061097f85828601610874565b925050602061099085828601610874565b9150509250929050565b60008160601b9050919050565b60006109b28261099a565b9050919050565b60006109c4826109a7565b9050919050565b6109dc6109d782610812565b6109b9565b82525050565b600062ffffff82169050919050565b60008160e81b9050919050565b6000610a09826109f1565b9050919050565b610a21610a1c826109e2565b6109fe565b82525050565b6000610a3382886109cb565b601482019150610a438287610a10565b600382019150610a5382866109cb565b601482019150610a638285610a10565b600382019150610a7382846109cb565b6014820191508190509695505050505050565b600081519050919050565b600082825260208201905092915050565b60005b83811015610ac0578082015181840152602081019050610aa5565b60008484015250505050565b6000601f19601f8301169050919050565b6000610ae882610a86565b610af28185610a91565b9350610b02818560208601610aa2565b610b0b81610acc565b840191505092915050565b610b1f81610812565b82525050565b610b2e81610853565b82525050565b600060a0830160008301518482036000860152610b518282610add565b9150506020830151610b666020860182610b16565b506040830151610b796040860182610b25565b506060830151610b8c6060860182610b25565b506080830151610b9f6080860182610b25565b508091505092915050565b60006020820190508181036000830152610bc48184610b34565b905092915050565b600081519050610bdb8161085d565b92915050565b600060208284031215610bf757610bf661084e565b5b6000610c0584828501610bcc565b91505092915050565b600060a0830160008301518482036000860152610c2b8282610add565b9150506020830151610c406020860182610b16565b506040830151610c536040860182610b25565b506060830151610c666060860182610b25565b506080830151610c796080860182610b25565b508091505092915050565b60006020820190508181036000830152610c9e8184610c0e565b905092915050565b7f4e487b7100000000000000000000000000000000000000000000000000000000600052601160045260246000fd5b6000610ce082610853565b9150610ceb83610853565b9250828203905081811115610d0357610d02610ca6565b5b92915050565b6000606082019050610d1e6000830186610824565b610d2b6020830185610824565b610d3860408301846108b6565b949350505050565b600081905092915050565b6000610d5682610a86565b610d608185610d40565b9350610d70818560208601610aa2565b80840191505092915050565b6000610d888284610d4b565b915081905092915050565b60008115159050919050565b610da881610d93565b8114610db357600080fd5b50565b600081519050610dc581610d9f565b92915050565b600060208284031215610de157610de061084e565b5b6000610def84828501610db6565b91505092915050565b600082825260208201905092915050565b7f5354460000000000000000000000000000000000000000000000000000000000600082015250565b6000610e3f600383610df8565b9150610e4a82610e09565b602082019050919050565b60006020820190508181036000830152610e6e81610e32565b9050919050565b6000604082019050610e8a6000830185610824565b610e9760208301846108b6565b9392505050565b7f5341000000000000000000000000000000000000000000000000000000000000600082015250565b6000610ed4600283610df8565b9150610edf82610e9e565b602082019050919050565b60006020820190508181036000830152610f0381610ec7565b905091905056fea2646970667358221220a8f31a835fdf4265fe776238c2e770a7f3dcd369910656ca33a335576b19f4f164736f6c63430008110033",
  "linkReferences": {},
  "deployedLinkReferences": {}
}